{"abi":[{"type":"constructor","inputs":[{"name":"_fileStore","type":"address","internalType":"contract IFileStore"}],"stateMutability":"nonpayable"},{"type":"function","name":"approve","inputs":[{"name":"to","type":"address","internalType":"address"},{"name":"tokenId","type":"uint256","internalType":"uint256"}],"outputs":[],"stateMutability":"nonpayable"},{"type":"function","name":"balanceOf","inputs":[{"name":"owner","type":"address","internalType":"address"}],"outputs":[{"name":"","type":"uint256","internalType":"uint256"}],"stateMutability":"view"},{"type":"function","name":"fileStore","inputs":[],"outputs":[{"name":"","type":"address","internalType":"contract IFileStore"}],"stateMutability":"view"},{"type":"function","name":"getApproved","inputs":[{"name":"tokenId","type":"uint256","internalType":"uint256"}],"outputs":[{"name":"","type":"address","internalType":"address"}],"stateMutability":"view"},{"type":"function","name":"isApprovedForAll","inputs":[{"name":"owner","type":"address","internalType":"address"},{"name":"operator","type":"address","internalType":"address"}],"outputs":[{"name":"","type":"bool","internalType":"bool"}],"stateMutability":"view"},{"type":"function","name":"name","inputs":[],"outputs":[{"name":"","type":"string","internalType":"string"}],"stateMutability":"view"},{"type":"function","name":"ownerOf","inputs":[{"name":"tokenId","type":"uint256","internalType":"uint256"}],"outputs":[{"name":"","type":"address","internalType":"address"}],"stateMutability":"view"},{"type":"function","name":"safeTransferFrom","inputs":[{"name":"from","type":"address","internalType":"address"},{"name":"to","type":"address","internalType":"address"},{"name":"tokenId","type":"uint256","internalType":"uint256"}],"outputs":[],"stateMutability":"nonpayable"},{"type":"function","name":"safeTransferFrom","inputs":[{"name":"from","type":"address","internalType":"address"},{"name":"to","type":"address","internalType":"address"},{"name":"tokenId","type":"uint256","internalType":"uint256"},{"name":"data","type":"bytes","internalType":"bytes"}],"outputs":[],"stateMutability":"nonpayable"},{"type":"function","name":"setApprovalForAll","inputs":[{"name":"operator","type":"address","internalType":"address"},{"name":"approved","type":"bool","internalType":"bool"}],"outputs":[],"stateMutability":"nonpayable"},{"type":"function","name":"supportsInterface","inputs":[{"name":"interfaceId","type":"bytes4","internalType":"bytes4"}],"outputs":[{"name":"","type":"bool","internalType":"bool"}],"stateMutability":"view"},{"type":"function","name":"symbol","inputs":[],"outputs":[{"name":"","type":"string","internalType":"string"}],"stateMutability":"view"},{"type":"function","name":"tokenURI","inputs":[{"name":"tokenId","type":"uint256","internalType":"uint256"}],"outputs":[{"name":"","type":"string","internalType":"string"}],"stateMutability":"view"},{"type":"function","name":"transferFrom","inputs":[{"name":"from","type":"address","internalType":"address"},{"name":"to","type":"address","internalType":"address"},{"name":"tokenId","type":"uint256","internalType":"uint256"}],"outputs":[],"stateMutability":"nonpayable"},{"type":"event","name":"Approval","inputs":[{"name":"owner","type":"address","indexed":true,"internalType":"address"},{"name":"approved","type":"address","indexed":true,"internalType":"address"},{"name":"tokenId","type":"uint256","indexed":true,"internalType":"uint256"}],"anonymous":false},{"type":"event","name":"ApprovalForAll","inputs":[{"name":"owner","type":"address","indexed":true,"internalType":"address"},{"name":"operator","type":"address","indexed":true,"internalType":"address"},{"name":"approved","type":"bool","indexed":false,"internalType":"bool"}],"anonymous":false},{"type":"event","name":"Transfer","inputs":[{"name":"from","type":"address","indexed":true,"internalType":"address"},{"name":"to","type":"address","indexed":true,"internalType":"address"},{"name":"tokenId","type":"uint256","indexed":true,"internalType":"uint256"}],"anonymous":false},{"type":"error","name":"ERC721IncorrectOwner","inputs":[{"name":"sender","type":"address","internalType":"address"},{"name":"tokenId","type":"uint256","internalType":"uint256"},{"name":"owner","type":"address","internalType":"address"}]},{"type":"error","name":"ERC721InsufficientApproval","inputs":[{"name":"operator","type":"address","internalType":"address"},{"name":"tokenId","type":"uint256","internalType":"uint256"}]},{"type":"error","name":"ERC721InvalidApprover","inputs":[{"name":"approver","type":"address","internalType":"address"}]},{"type":"error","name":"ERC721InvalidOperator","inputs":[{"name":"operator","type":"address","internalType":"address"}]},{"type":"error","name":"ERC721InvalidOwner","inputs":[{"name":"owner","type":"address","internalType":"address"}]},{"type":"error","name":"ERC721InvalidReceiver","inputs":[{"name":"receiver","type":"address","internalType":"address"}]},{"type":"error","name":"ERC721InvalidSender","inputs":[{"name":"sender","type":"address","internalType":"address"}]},{"type":"error","name":"ERC721NonexistentToken","inputs":[{"name":"tokenId","type":"uint256","internalType":"uint256"}]}],"bytecode":{"object":"0x60a06040523480156200001157600080fd5b5060405162001cd838038062001cd88339810160408190526200003491620004b4565b6040518060400160405280600b81526020016a526f73654578616d706c6560a81b81525060405180604001604052806004815260200163524f534560e01b81525081600090816200008691906200058c565b5060016200009582826200058c565b5050506001600160a01b038116608052620000b2336001620000e0565b620000bf336002620000e0565b620000cc336003620000e0565b620000d9336004620000e0565b5062000658565b6001600160a01b0382166200011057604051633250574960e11b8152600060048201526024015b60405180910390fd5b60006200011f83838362000153565b90506001600160a01b038116156200014e576040516339e3563760e11b81526000600482015260240162000107565b505050565b6000828152600260205260408120546001600160a01b039081169083161562000183576200018381848662000252565b6001600160a01b03811615620001c357620001a26000858180620002bc565b6001600160a01b038116600090815260036020526040902080546000190190555b6001600160a01b03851615620001f3576001600160a01b0385166000908152600360205260409020805460010190555b60008481526002602052604080822080546001600160a01b0319166001600160a01b0389811691821790925591518793918516917fddf252ad1be2c89b69c2b068fc378daa952ba7f163c4a11628f55a4df523b3ef91a4949350505050565b6200025f838383620003ea565b6200014e576001600160a01b0383166200029057604051637e27328960e01b81526004810182905260240162000107565b60405163177e802f60e01b81526001600160a01b03831660048201526024810182905260440162000107565b8080620002d157506001600160a01b03821615155b15620003ba576000620002e48462000473565b90506001600160a01b03831615801590620003115750826001600160a01b0316816001600160a01b031614155b80156200034457506001600160a01b0380821660009081526005602090815260408083209387168352929052205460ff16155b156200036f5760405163a9fbf51f60e01b81526001600160a01b038416600482015260240162000107565b8115620003b85783856001600160a01b0316826001600160a01b03167f8c5be1e5ebec7d5bd14f71427d1e84f3dd0314c0f7b2291e5b200ac8c7c3b92560405160405180910390a45b505b5050600090815260046020526040902080546001600160a01b0319166001600160a01b0392909216919091179055565b60006001600160a01b038316158015906200046b5750826001600160a01b0316846001600160a01b031614806200044657506001600160a01b0380851660009081526005602090815260408083209387168352929052205460ff165b806200046b57506000828152600460205260409020546001600160a01b038481169116145b949350505050565b6000818152600260205260408120546001600160a01b031680620004ae57604051637e27328960e01b81526004810184905260240162000107565b92915050565b600060208284031215620004c757600080fd5b81516001600160a01b0381168114620004df57600080fd5b9392505050565b634e487b7160e01b600052604160045260246000fd5b600181811c908216806200051157607f821691505b6020821081036200053257634e487b7160e01b600052602260045260246000fd5b50919050565b601f8211156200014e576000816000526020600020601f850160051c81016020861015620005635750805b601f850160051c820191505b8181101562000584578281556001016200056f565b505050505050565b81516001600160401b03811115620005a857620005a8620004e6565b620005c081620005b98454620004fc565b8462000538565b602080601f831160018114620005f85760008415620005df5750858301515b600019600386901b1c1916600185901b17855562000584565b600085815260208120601f198616915b82811015620006295788860151825594840194600190910190840162000608565b5085821015620006485787850151600019600388901b60f8161c191681555b5050505050600190811b01905550565b60805161164f6200068960003960008181610171015281816104d50152818161058401526105f5015261164f6000f3fe608060405234801561001057600080fd5b50600436106100ea5760003560e01c80636352211e1161008c578063a22cb46511610066578063a22cb465146101f5578063b88d4fde14610208578063c87b56dd1461021b578063e985e9c51461022e57600080fd5b80636352211e146101b957806370a08231146101cc57806395d89b41146101ed57600080fd5b8063095ea7b3116100c8578063095ea7b31461015757806321ea07e11461016c57806323b872dd1461019357806342842e0e146101a657600080fd5b806301ffc9a7146100ef57806306fdde0314610117578063081812fc1461012c575b600080fd5b6101026100fd366004610c5c565b610241565b60405190151581526020015b60405180910390f35b61011f610293565b60405161010e9190610cd0565b61013f61013a366004610ce3565b610325565b6040516001600160a01b03909116815260200161010e565b61016a610165366004610d11565b61034e565b005b61013f7f000000000000000000000000000000000000000000000000000000000000000081565b61016a6101a1366004610d3d565b61035d565b61016a6101b4366004610d3d565b6103ed565b61013f6101c7366004610ce3565b61040d565b6101df6101da366004610d7e565b610418565b60405190815260200161010e565b61011f610460565b61016a610203366004610d9b565b61046f565b61016a610216366004610e6c565b61047a565b61011f610229366004610ce3565b610491565b61010261023c366004610f30565b610655565b60006001600160e01b031982166380ac58cd60e01b148061027257506001600160e01b03198216635b5e139f60e01b145b8061028d57506301ffc9a760e01b6001600160e01b03198316145b92915050565b6060600080546102a290610f5e565b80601f01602080910402602001604051908101604052809291908181526020018280546102ce90610f5e565b801561031b5780601f106102f05761010080835404028352916020019161031b565b820191906000526020600020905b8154815290600101906020018083116102fe57829003601f168201915b5050505050905090565b600061033082610683565b506000828152600460205260409020546001600160a01b031661028d565b6103598282336106bc565b5050565b6001600160a01b03821661038c57604051633250574960e11b8152600060048201526024015b60405180910390fd5b60006103998383336106c9565b9050836001600160a01b0316816001600160a01b0316146103e7576040516364283d7b60e01b81526001600160a01b0380861660048301526024820184905282166044820152606401610383565b50505050565b6104088383836040518060200160405280600081525061047a565b505050565b600061028d82610683565b60006001600160a01b038216610444576040516322718ad960e21b815260006004820152602401610383565b506001600160a01b031660009081526003602052604090205490565b6060600180546102a290610f5e565b6103593383836107c2565b61048584848461035d565b6103e784848484610861565b604051631c10ed5560e31b815260206004820152600f60248201526e3a343932b29736b4b71735399733bd60891b604482015260609061054a906001600160a01b037f0000000000000000000000000000000000000000000000000000000000000000169063e0876aa8906064015b600060405180830381865afa15801561051d573d6000803e3d6000fd5b505050506040513d6000823e601f3d908101601f191682016040526105459190810190610fb1565b61098a565b604051631c10ed5560e31b815260206004820152601060248201526f67756e7a6970536372697074732e6a7360801b60448201526105bb907f00000000000000000000000000000000000000000000000000000000000000006001600160a01b03169063e0876aa890606401610500565b6105c484610a2f565b604051631c10ed5560e31b8152602060048201526007602482015266726f73652e6a7360c81b604482015261062c907f00000000000000000000000000000000000000000000000000000000000000006001600160a01b03169063e0876aa890606401610500565b60405160200161063f94939291906110f1565b6040516020818303038152906040529050919050565b6001600160a01b03918216600090815260056020908152604080832093909416825291909152205460ff1690565b6000818152600260205260408120546001600160a01b03168061028d57604051637e27328960e01b815260048101849052602401610383565b6104088383836001610a73565b6000828152600260205260408120546001600160a01b03908116908316156106f6576106f6818486610b79565b6001600160a01b0381161561073457610713600085600080610a73565b6001600160a01b038116600090815260036020526040902080546000190190555b6001600160a01b03851615610763576001600160a01b0385166000908152600360205260409020805460010190555b60008481526002602052604080822080546001600160a01b0319166001600160a01b0389811691821790925591518793918516917fddf252ad1be2c89b69c2b068fc378daa952ba7f163c4a11628f55a4df523b3ef91a4949350505050565b6001600160a01b0382166107f457604051630b61174360e31b81526001600160a01b0383166004820152602401610383565b6001600160a01b03838116600081815260056020908152604080832094871680845294825291829020805460ff191686151590811790915591519182527f17307eab39ab6107e8899845ad3d59bd9653f200f220920489ca2b5937696c31910160405180910390a3505050565b6001600160a01b0383163b156103e757604051630a85bd0160e11b81526001600160a01b0384169063150b7a02906108a39033908890879087906004016115e8565b6020604051808303816000875af19250505080156108de575060408051601f3d908101601f191682019092526108db91810190611625565b60015b610947573d80801561090c576040519150601f19603f3d011682016040523d82523d6000602084013e610911565b606091505b50805160000361093f57604051633250574960e11b81526001600160a01b0385166004820152602401610383565b805181602001fd5b6001600160e01b03198116630a85bd0160e11b1461098357604051633250574960e11b81526001600160a01b0385166004820152602401610383565b5050505050565b6020808201518051604051926386d14d8960e01b9190600080808080805b87811015610a0d57602081026020018a01519550855194506020860151935060408601519250843b9150818311156109f457886000528460045281602452836044528260645260846000fd5b83830384888d01873c83830396909601956001016109a8565b505050505050602081038552601f19601f820116850160405250505050919050565b60606080604051019050602081016040526000815280600019835b928101926030600a8206018453600a900480610a4a575050819003601f19909101908152919050565b8080610a8757506001600160a01b03821615155b15610b49576000610a9784610683565b90506001600160a01b03831615801590610ac35750826001600160a01b0316816001600160a01b031614155b8015610ad65750610ad48184610655565b155b15610aff5760405163a9fbf51f60e01b81526001600160a01b0384166004820152602401610383565b8115610b475783856001600160a01b0316826001600160a01b03167f8c5be1e5ebec7d5bd14f71427d1e84f3dd0314c0f7b2291e5b200ac8c7c3b92560405160405180910390a45b505b5050600090815260046020526040902080546001600160a01b0319166001600160a01b0392909216919091179055565b610b84838383610bdd565b610408576001600160a01b038316610bb257604051637e27328960e01b815260048101829052602401610383565b60405163177e802f60e01b81526001600160a01b038316600482015260248101829052604401610383565b60006001600160a01b03831615801590610c3b5750826001600160a01b0316846001600160a01b03161480610c175750610c178484610655565b80610c3b57506000828152600460205260409020546001600160a01b038481169116145b949350505050565b6001600160e01b031981168114610c5957600080fd5b50565b600060208284031215610c6e57600080fd5b8135610c7981610c43565b9392505050565b60005b83811015610c9b578181015183820152602001610c83565b50506000910152565b60008151808452610cbc816020860160208601610c80565b601f01601f19169290920160200192915050565b602081526000610c796020830184610ca4565b600060208284031215610cf557600080fd5b5035919050565b6001600160a01b0381168114610c5957600080fd5b60008060408385031215610d2457600080fd5b8235610d2f81610cfc565b946020939093013593505050565b600080600060608486031215610d5257600080fd5b8335610d5d81610cfc565b92506020840135610d6d81610cfc565b929592945050506040919091013590565b600060208284031215610d9057600080fd5b8135610c7981610cfc565b60008060408385031215610dae57600080fd5b8235610db981610cfc565b915060208301358015158114610dce57600080fd5b809150509250929050565b634e487b7160e01b600052604160045260246000fd5b6040805190810167ffffffffffffffff81118282101715610e1257610e12610dd9565b60405290565b6040516060810167ffffffffffffffff81118282101715610e1257610e12610dd9565b604051601f8201601f1916810167ffffffffffffffff81118282101715610e6457610e64610dd9565b604052919050565b60008060008060808587031215610e8257600080fd5b8435610e8d81610cfc565b9350602085810135610e9e81610cfc565b935060408601359250606086013567ffffffffffffffff80821115610ec257600080fd5b818801915088601f830112610ed657600080fd5b813581811115610ee857610ee8610dd9565b610efa601f8201601f19168501610e3b565b91508082528984828501011115610f1057600080fd5b808484018584013760008482840101525080935050505092959194509250565b60008060408385031215610f4357600080fd5b8235610f4e81610cfc565b91506020830135610dce81610cfc565b600181811c90821680610f7257607f821691505b602082108103610f9257634e487b7160e01b600052602260045260246000fd5b50919050565b805163ffffffff81168114610fac57600080fd5b919050565b60006020808385031215610fc457600080fd5b825167ffffffffffffffff80821115610fdc57600080fd5b81850191506040808388031215610ff257600080fd5b610ffa610def565b83518152848401518381111561100f57600080fd5b80850194505087601f85011261102457600080fd5b83518381111561103657611036610dd9565b611044868260051b01610e3b565b8181528681019450606091820286018701918a83111561106357600080fd5b958701955b828710156110c25780878c0312156110805760008081fd5b611088610e18565b875161109381610cfc565b81526110a0888a01610f98565b898201526110af868901610f98565b8187015286529586019594870194611068565b5095820195909552979650505050505050565b600081516110e7818560208601610c80565b9290920192915050565b7f646174613a6170706c69636174696f6e2f6a736f6e2c2537422532326e616d6581527f2532322533412532324578616d706c65253230526f736525323225324325323260208201527f616e696d6174696f6e5f75726c2532322533412532326461746125334174657860408201527f7425324668746d6c25324325323533437363726970742532353041253235323060608201527f253235323074797065253235334425323532327465787425323532466a61766160808201527f7363726970742532353242677a6970253235323225323530412532353230253260a08201527f353230737263253235334425323532326461746125323533417465787425323560c08201527f32466a617661736372697074253235334262617365363425323532430000000060e0820152600085516112338160fc850160208a01610c80565b7f253235323225323530412532353345253235334325323532467363726970742560fc918401918201527f323533452532353041253235334373637269707425323532307372632532353361011c8201527f4425323532326461746125323533417465787425323532466a6176617363726961013c8201527170742532353342626173653634253235324360701b61015c8201526115dd6115a161159b61136e6113686112e461016e87018c6110d5565b7f253235323225323533452532353343253235324673637269707425323533452581527f323530412532353041253235334373637269707425323533452532353041253260208201527f35323025323532307661722532353230746f6b656e496425323532302532353360408201526504425323532360d41b606082015260660190565b896110d5565b7f253235334225323530412532353343253235324673637269707425323533452581527f3235304125323533437374796c6525323533452532353041253235323025323560208201527f32302a253235323025323537422532353041253235323025323532302532353260408201527f3025323532306d617267696e253235334125323532303025323533422532353060608201527f41253235323025323532302532353230253235323070616464696e672532353360808201527f412532353230302532353342253235304125323532302532353230253235374460a08201527f25323530412532353230253235323063616e766173253235323025323537422560c08201527f323530412532353230253235323025323532302532353230776964746825323560e08201527f33412532353230313030253235323525323533422532353041253235323025326101008201527f35323025323532302532353230686569676874253235334125323532303130306101208201527f25323532352532353342253235304125323532302532353230253235374425326101408201527f353041253235334325323532467374796c6525323533452532353041253235336101608201527f43736372697074253235323073726325323533442532353232646174612532356101808201527f33417465787425323532466a61766173637269707425323533426261736536346101a082015264253235324360d81b6101c08201526101c50190565b866110d5565b7f25323532322532353345253235334325323532467363726970742532353345258152690c8d4c10494c8c894dd160b21b6020820152602a0190565b979650505050505050565b6001600160a01b038581168252841660208201526040810183905260806060820181905260009061161b90830184610ca4565b9695505050505050565b60006020828403121561163757600080fd5b8151610c7981610c4356fea164736f6c6343000818000a","linkReferences":{}},"methodIdentifiers":{"approve(address,uint256)":"095ea7b3","balanceOf(address)":"70a08231","fileStore()":"21ea07e1","getApproved(uint256)":"081812fc","isApprovedForAll(address,address)":"e985e9c5","name()":"06fdde03","ownerOf(uint256)":"6352211e","safeTransferFrom(address,address,uint256)":"42842e0e","safeTransferFrom(address,address,uint256,bytes)":"b88d4fde","setApprovalForAll(address,bool)":"a22cb465","supportsInterface(bytes4)":"01ffc9a7","symbol()":"95d89b41","tokenURI(uint256)":"c87b56dd","transferFrom(address,address,uint256)":"23b872dd"},"id":44}