{"abi":[{"type":"constructor","inputs":[{"name":"_deployer","type":"address","internalType":"address"}],"stateMutability":"nonpayable"},{"type":"function","name":"createFile","inputs":[{"name":"filename","type":"string","internalType":"string"},{"name":"contents","type":"string","internalType":"string"}],"outputs":[{"name":"pointer","type":"address","internalType":"address"},{"name":"file","type":"tuple","internalType":"struct File","components":[{"name":"size","type":"uint256","internalType":"uint256"},{"name":"slices","type":"tuple[]","internalType":"struct BytecodeSlice[]","components":[{"name":"pointer","type":"address","internalType":"address"},{"name":"start","type":"uint32","internalType":"uint32"},{"name":"end","type":"uint32","internalType":"uint32"}]}]}],"stateMutability":"nonpayable"},{"type":"function","name":"createFile","inputs":[{"name":"filename","type":"string","internalType":"string"},{"name":"contents","type":"string","internalType":"string"},{"name":"metadata","type":"bytes","internalType":"bytes"}],"outputs":[{"name":"pointer","type":"address","internalType":"address"},{"name":"file","type":"tuple","internalType":"struct File","components":[{"name":"size","type":"uint256","internalType":"uint256"},{"name":"slices","type":"tuple[]","internalType":"struct BytecodeSlice[]","components":[{"name":"pointer","type":"address","internalType":"address"},{"name":"start","type":"uint32","internalType":"uint32"},{"name":"end","type":"uint32","internalType":"uint32"}]}]}],"stateMutability":"nonpayable"},{"type":"function","name":"createFileFromChunks","inputs":[{"name":"filename","type":"string","internalType":"string"},{"name":"chunks","type":"string[]","internalType":"string[]"},{"name":"metadata","type":"bytes","internalType":"bytes"}],"outputs":[{"name":"pointer","type":"address","internalType":"address"},{"name":"file","type":"tuple","internalType":"struct File","components":[{"name":"size","type":"uint256","internalType":"uint256"},{"name":"slices","type":"tuple[]","internalType":"struct BytecodeSlice[]","components":[{"name":"pointer","type":"address","internalType":"address"},{"name":"start","type":"uint32","internalType":"uint32"},{"name":"end","type":"uint32","internalType":"uint32"}]}]}],"stateMutability":"nonpayable"},{"type":"function","name":"createFileFromChunks","inputs":[{"name":"filename","type":"string","internalType":"string"},{"name":"chunks","type":"string[]","internalType":"string[]"}],"outputs":[{"name":"pointer","type":"address","internalType":"address"},{"name":"file","type":"tuple","internalType":"struct File","components":[{"name":"size","type":"uint256","internalType":"uint256"},{"name":"slices","type":"tuple[]","internalType":"struct BytecodeSlice[]","components":[{"name":"pointer","type":"address","internalType":"address"},{"name":"start","type":"uint32","internalType":"uint32"},{"name":"end","type":"uint32","internalType":"uint32"}]}]}],"stateMutability":"nonpayable"},{"type":"function","name":"createFileFromPointers","inputs":[{"name":"filename","type":"string","internalType":"string"},{"name":"pointers","type":"address[]","internalType":"address[]"},{"name":"metadata","type":"bytes","internalType":"bytes"}],"outputs":[{"name":"pointer","type":"address","internalType":"address"},{"name":"file","type":"tuple","internalType":"struct File","components":[{"name":"size","type":"uint256","internalType":"uint256"},{"name":"slices","type":"tuple[]","internalType":"struct BytecodeSlice[]","components":[{"name":"pointer","type":"address","internalType":"address"},{"name":"start","type":"uint32","internalType":"uint32"},{"name":"end","type":"uint32","internalType":"uint32"}]}]}],"stateMutability":"nonpayable"},{"type":"function","name":"createFileFromPointers","inputs":[{"name":"filename","type":"string","internalType":"string"},{"name":"pointers","type":"address[]","internalType":"address[]"}],"outputs":[{"name":"pointer","type":"address","internalType":"address"},{"name":"file","type":"tuple","internalType":"struct File","components":[{"name":"size","type":"uint256","internalType":"uint256"},{"name":"slices","type":"tuple[]","internalType":"struct BytecodeSlice[]","components":[{"name":"pointer","type":"address","internalType":"address"},{"name":"start","type":"uint32","internalType":"uint32"},{"name":"end","type":"uint32","internalType":"uint32"}]}]}],"stateMutability":"nonpayable"},{"type":"function","name":"createFileFromSlices","inputs":[{"name":"filename","type":"string","internalType":"string"},{"name":"slices","type":"tuple[]","internalType":"struct BytecodeSlice[]","components":[{"name":"pointer","type":"address","internalType":"address"},{"name":"start","type":"uint32","internalType":"uint32"},{"name":"end","type":"uint32","internalType":"uint32"}]},{"name":"metadata","type":"bytes","internalType":"bytes"}],"outputs":[{"name":"pointer","type":"address","internalType":"address"},{"name":"file","type":"tuple","internalType":"struct File","components":[{"name":"size","type":"uint256","internalType":"uint256"},{"name":"slices","type":"tuple[]","internalType":"struct BytecodeSlice[]","components":[{"name":"pointer","type":"address","internalType":"address"},{"name":"start","type":"uint32","internalType":"uint32"},{"name":"end","type":"uint32","internalType":"uint32"}]}]}],"stateMutability":"nonpayable"},{"type":"function","name":"createFileFromSlices","inputs":[{"name":"filename","type":"string","internalType":"string"},{"name":"slices","type":"tuple[]","internalType":"struct BytecodeSlice[]","components":[{"name":"pointer","type":"address","internalType":"address"},{"name":"start","type":"uint32","internalType":"uint32"},{"name":"end","type":"uint32","internalType":"uint32"}]}],"outputs":[{"name":"pointer","type":"address","internalType":"address"},{"name":"file","type":"tuple","internalType":"struct File","components":[{"name":"size","type":"uint256","internalType":"uint256"},{"name":"slices","type":"tuple[]","internalType":"struct BytecodeSlice[]","components":[{"name":"pointer","type":"address","internalType":"address"},{"name":"start","type":"uint32","internalType":"uint32"},{"name":"end","type":"uint32","internalType":"uint32"}]}]}],"stateMutability":"nonpayable"},{"type":"function","name":"deployer","inputs":[],"outputs":[{"name":"","type":"address","internalType":"address"}],"stateMutability":"view"},{"type":"function","name":"fileExists","inputs":[{"name":"filename","type":"string","internalType":"string"}],"outputs":[{"name":"","type":"bool","internalType":"bool"}],"stateMutability":"view"},{"type":"function","name":"files","inputs":[{"name":"filename","type":"string","internalType":"string"}],"outputs":[{"name":"pointer","type":"address","internalType":"address"}],"stateMutability":"view"},{"type":"function","name":"getFile","inputs":[{"name":"filename","type":"string","internalType":"string"}],"outputs":[{"name":"file","type":"tuple","internalType":"struct File","components":[{"name":"size","type":"uint256","internalType":"uint256"},{"name":"slices","type":"tuple[]","internalType":"struct BytecodeSlice[]","components":[{"name":"pointer","type":"address","internalType":"address"},{"name":"start","type":"uint32","internalType":"uint32"},{"name":"end","type":"uint32","internalType":"uint32"}]}]}],"stateMutability":"view"},{"type":"function","name":"getPointer","inputs":[{"name":"filename","type":"string","internalType":"string"}],"outputs":[{"name":"pointer","type":"address","internalType":"address"}],"stateMutability":"view"},{"type":"function","name":"readFile","inputs":[{"name":"filename","type":"string","internalType":"string"}],"outputs":[{"name":"contents","type":"string","internalType":"string"}],"stateMutability":"view"},{"type":"event","name":"Deployed","inputs":[],"anonymous":false},{"type":"event","name":"FileCreated","inputs":[{"name":"indexedFilename","type":"string","indexed":true,"internalType":"string"},{"name":"pointer","type":"address","indexed":true,"internalType":"address"},{"name":"filename","type":"string","indexed":false,"internalType":"string"},{"name":"size","type":"uint256","indexed":false,"internalType":"uint256"},{"name":"metadata","type":"bytes","indexed":false,"internalType":"bytes"}],"anonymous":false},{"type":"error","name":"FileEmpty","inputs":[]},{"type":"error","name":"FileNotFound","inputs":[{"name":"filename","type":"string","internalType":"string"}]},{"type":"error","name":"FilenameExists","inputs":[{"name":"filename","type":"string","internalType":"string"}]},{"type":"error","name":"InvalidPointer","inputs":[{"name":"pointer","type":"address","internalType":"address"}]},{"type":"error","name":"SliceEmpty","inputs":[{"name":"pointer","type":"address","internalType":"address"},{"name":"start","type":"uint32","internalType":"uint32"},{"name":"end","type":"uint32","internalType":"uint32"}]},{"type":"error","name":"SliceOutOfBounds","inputs":[{"name":"pointer","type":"address","internalType":"address"},{"name":"codeSize","type":"uint32","internalType":"uint32"},{"name":"sliceStart","type":"uint32","internalType":"uint32"},{"name":"sliceEnd","type":"uint32","internalType":"uint32"}]},{"type":"error","name":"UnexpectedPointer","inputs":[{"name":"expectedPointer","type":"address","internalType":"address"},{"name":"actualPointer","type":"address","internalType":"address"}]}],"bytecode":{"object":"0x60a060405234801561001057600080fd5b50604051611cb5380380611cb583398101604081905261002f9161006b565b6001600160a01b0381166080526040517f3fad920548ed9f22deb8333b4cc1e4f9bc36666a1c2aa30ad59a0a3bb9dcbb9290600090a15061009b565b60006020828403121561007d57600080fd5b81516001600160a01b038116811461009457600080fd5b9392505050565b608051611bf16100c4600039600081816101c00152818161086a0152610dd50152611bf16000f3fe608060405234801561001057600080fd5b50600436106100ea5760003560e01c8063d0e11f721161008c578063e24eaca411610066578063e24eaca41461021a578063e77557611461022d578063e9c7b51c14610261578063fae172e61461027457600080fd5b8063d0e11f72146101a8578063d5f39488146101bb578063e0876aa8146101fa57600080fd5b806381ad193a116100c857806381ad193a1461014c57806383e870d31461015f5780639bccd6ad146101725780639d3127df1461019557600080fd5b806355bb7d2c146100ef57806360f9bb11146101195780637611cb0214610139575b600080fd5b6101026100fd3660046113fc565b610287565b604051610110929190611500565b60405180910390f35b61012c61012736600461152c565b6102c5565b60405161011091906115b0565b610102610147366004611636565b6102de565b61010261015a366004611690565b61030a565b61010261016d366004611772565b610355565b61018561018036600461152c565b610381565b6040519015158152602001610110565b6101026101a33660046117cc565b6103be565b6101026101b6366004611825565b6103ea565b6101e27f000000000000000000000000000000000000000000000000000000000000000081565b6040516001600160a01b039091168152602001610110565b61020d61020836600461152c565b610416565b604051610110919061187e565b610102610228366004611891565b6104a3565b6101e261023b36600461152c565b80516020818301810180516000825292820191909301209152546001600160a01b031681565b61010261026f3660046118ea565b6104cf565b6101e261028236600461152c565b6104fb565b60006102a6604051806040016040528060008152602001606081525090565b6102b9856102b38661054c565b856107d0565b91509150935093915050565b60606102d86102d383610416565b61094a565b92915050565b60006102fd604051806040016040528060008152602001606081525090565b6102b9856102b3866109ef565b6000610329604051806040016040528060008152602001606081525090565b61034a8461033685610c32565b6040805160008152602081019091526107d0565b915091509250929050565b6000610374604051806040016040528060008152602001606081525090565b6102b9856102b386610d45565b6000806001600160a01b031660008360405161039d9190611944565b908152604051908190036020019020546001600160a01b0316141592915050565b60006103dd604051806040016040528060008152602001606081525090565b61034a846103368561054c565b6000610409604051806040016040528060008152602001606081525090565b61034a8461033685610d45565b6040805180820190915260008152606060208201526000808360405161043c9190611944565b908152604051908190036020019020546001600160a01b03169050806104805782604051630b5d665f60e31b815260040161047791906115b0565b60405180910390fd5b61048981610f32565b80602001905181019061049c9190611960565b9392505050565b60006104c2604051806040016040528060008152602001606081525090565b61034a84610336856109ef565b60006104ee604051806040016040528060008152602001606081525090565b6102b9856102b386610c32565b6000808260405161050c9190611944565b908152604051908190036020019020546001600160a01b03169050806105475781604051630b5d665f60e31b815260040161047791906115b0565b919050565b6040805180820190915260008152606060208201526000805b83518110156107b657600084828151811061058257610582611a77565b6020026020010151602001518583815181106105a0576105a0611a77565b6020026020010151604001516105b69190611aa3565b63ffffffff1611610659578381815181106105d3576105d3611a77565b6020026020010151600001518482815181106105f1576105f1611a77565b60200260200101516020015185838151811061060f5761060f611a77565b602002602001015160400151604051630fb55db160e41b8152600401610477939291906001600160a01b0393909316835263ffffffff918216602084015216604082015260600190565b600084828151811061066d5761066d611a77565b6020026020010151600001516001600160a01b03163b90508063ffffffff1685838151811061069e5761069e611a77565b60200260200101516040015163ffffffff161115610755578482815181106106c8576106c8611a77565b602002602001015160000151818684815181106106e7576106e7611a77565b60200260200101516020015187858151811061070557610705611a77565b602090810291909101015160409081015190516386d14d8960e01b81526001600160a01b03909416600485015263ffffffff92831660248501529082166044840152166064820152608401610477565b84828151811061076757610767611a77565b60200260200101516020015185838151811061078557610785611a77565b60200260200101516040015161079b9190611aa3565b6107ab9063ffffffff1684611ac7565b925050600101610565565b506040805180820190915290815260208101929092525090565b60006107ef604051806040016040528060008152602001606081525090565b83516000036108115760405163d74d341f60e01b815260040160405180910390fd5b60006001600160a01b031660008660405161082c9190611944565b908152604051908190036020019020546001600160a01b03161461086557846040516301856ec560e51b815260040161047791906115b0565b6108ae7f00000000000000000000000000000000000000000000000000000000000000008560405160200161089a919061187e565b604051602081830303815290604052610f7c565b9150816000866040516108c19190611944565b90815260405190819003602001812080546001600160a01b039384166001600160a01b0319909116179055908316906108fb908790611944565b60405180910390207f656833a15067acdf08730a6a38b6ab9ed5e3265936848d56eac08e7b3b7239648787600001518760405161093a93929190611ada565b60405180910390a3509391925050565b6020808201518051604051926386d14d8960e01b9190600080808080805b878110156109cd57602081026020018a01519550855194506020860151935060408601519250843b9150818311156109b457886000528460045281602452836044528260645260846000fd5b83830384888d01873c8383039690960195600101610968565b505050505050602081038552601f19601f820116850160405250505050919050565b60408051808201909152600081526060602082015260008083516001600160401b03811115610a2057610a206111fc565b604051908082528060200260200182016040528015610a6b57816020015b6040805160608101825260008082526020808301829052928201528252600019909201910181610a3e5790505b50905060005b8451811015610c1957610a9c858281518110610a8f57610a8f611a77565b6020026020010151611094565b610ae357848181518110610ab257610ab2611a77565b60200260200101516040516326cd283760e01b815260040161047791906001600160a01b0391909116815260200190565b848181518110610af557610af5611a77565b6020026020010151828281518110610b0f57610b0f611a77565b6020026020010151600001906001600160a01b031690816001600160a01b0316815250506001828281518110610b4757610b47611a77565b60200260200101516020019063ffffffff16908163ffffffff1681525050848181518110610b7757610b77611a77565b60200260200101516001600160a01b03163b828281518110610b9b57610b9b611a77565b60200260200101516040019063ffffffff16908163ffffffff1681525050818181518110610bcb57610bcb611a77565b602002602001015160200151828281518110610be957610be9611a77565b602002602001015160400151610bff9190611aa3565b610c0f9063ffffffff1684611ac7565b9250600101610a71565b5060408051808201909152918252602082015292915050565b6040805180820190915260008152606060208201528151615fff6000816001610c5b8286611ac7565b610c659190611b05565b610c6f9190611b18565b90506000816001600160401b03811115610c8b57610c8b6111fc565b604051908082528060200260200182016040528015610cbe57816020015b6060815260200190600190039081610ca95790505b50905060005b82811015610d31576000610cd88583611b3a565b9050600086610ce78784611ac7565b11610cfb57610cf68683611ac7565b610cfd565b865b9050610d0a8983836110bd565b848481518110610d1c57610d1c611a77565b60209081029190910101525050600101610cc4565b50610d3b81610d45565b9695505050505050565b60408051808201909152600081526060602082015260008083516001600160401b03811115610d7657610d766111fc565b604051908082528060200260200182016040528015610dc157816020015b6040805160608101825260008082526020808301829052928201528252600019909201910181610d945790505b50905060005b8451811015610c1957610e137f0000000000000000000000000000000000000000000000000000000000000000868381518110610e0657610e06611a77565b6020026020010151610f7c565b828281518110610e2557610e25611a77565b6020026020010151600001906001600160a01b031690816001600160a01b0316815250506001828281518110610e5d57610e5d611a77565b60200260200101516020019063ffffffff16908163ffffffff1681525050848181518110610e8d57610e8d611a77565b6020026020010151516001610ea29190611ac7565b828281518110610eb457610eb4611a77565b60200260200101516040019063ffffffff16908163ffffffff1681525050818181518110610ee457610ee4611a77565b602002602001015160200151828281518110610f0257610f02611a77565b602002602001015160400151610f189190611aa3565b610f289063ffffffff1684611ac7565b9250600101610dc7565b6060813b80610f49576311052bb46000526004601cfd5b600181039050604051915061ffe0603f820116820160405280825260008160208401015280600160208401853c50919050565b600080610f898484611123565b90506001600160a01b0381163b15610fa25790506102d8565b600080856001600160a01b031664457468465360d81b610fc187611138565b604051602001610fd2929190611b51565b60408051601f1981840301815290829052610fec91611944565b6000604051808303816000865af19150503d8060008114611029576040519150601f19603f3d011682016040523d82523d6000602084013e61102e565b606091505b509150915081611041576110418161118d565b61104a81611b77565b60601c93506001600160a01b038316841461108b57604051636509115d60e01b81526001600160a01b03808516600483015285166024820152604401610477565b50505092915050565b6000813b60fe81156110b5576040516001600082873c601e19015160ff1690505b159392505050565b606083518281116110cc578092505b8381116110d7578093505b508183101561049c575060405182820380825293830193601f19601f820181165b86810151848201528101806110f85750600083830160200152603f9091011681016040529392505050565b600061049c8264457468465360d81b85611195565b6060815160016111489190611ac7565b60e81b6001600160e81b0319166a61000080600a3d393df30060a81b1782604051602001611177929190611bb3565b6040516020818303038152906040529050919050565b805160208201fd5b6000806111a1856111cb565b905060ff600053806035528260601b60015283601552605560002091506000603552509392505050565b60008151600181018060101c3d3d3e6a61000080600a3d393df300604082901b178452600a01601584012092525090565b634e487b7160e01b600052604160045260246000fd5b604051606081016001600160401b0381118282101715611234576112346111fc565b60405290565b604080519081016001600160401b0381118282101715611234576112346111fc565b604051601f8201601f191681016001600160401b0381118282101715611284576112846111fc565b604052919050565b600082601f83011261129d57600080fd5b81356001600160401b038111156112b6576112b66111fc565b6112c9601f8201601f191660200161125c565b8181528460208386010111156112de57600080fd5b816020850160208301376000918101602001919091529392505050565b60006001600160401b03821115611314576113146111fc565b5060051b60200190565b6001600160a01b038116811461133357600080fd5b50565b63ffffffff8116811461133357600080fd5b600082601f83011261135957600080fd5b8135602061136e611369836112fb565b61125c565b8281526060928302850182019282820191908785111561138d57600080fd5b8387015b858110156113ef5781818a0312156113a95760008081fd5b6113b1611212565b81356113bc8161131e565b8152818601356113cb81611336565b818701526040828101356113de81611336565b908201528452928401928101611391565b5090979650505050505050565b60008060006060848603121561141157600080fd5b83356001600160401b038082111561142857600080fd5b6114348783880161128c565b9450602086013591508082111561144a57600080fd5b61145687838801611348565b9350604086013591508082111561146c57600080fd5b506114798682870161128c565b9150509250925092565b600060408084018351855260208085015160408288015282815180855260609450606089019150838301925060005b818110156114f257835180516001600160a01b031684528581015163ffffffff9081168786015290880151168784015292840192918501916001016114b2565b509098975050505050505050565b6001600160a01b038316815260406020820181905260009061152490830184611483565b949350505050565b60006020828403121561153e57600080fd5b81356001600160401b0381111561155457600080fd5b6115248482850161128c565b60005b8381101561157b578181015183820152602001611563565b50506000910152565b6000815180845261159c816020860160208601611560565b601f01601f19169290920160200192915050565b60208152600061049c6020830184611584565b600082601f8301126115d457600080fd5b813560206115e4611369836112fb565b8083825260208201915060208460051b87010193508684111561160657600080fd5b602086015b8481101561162b57803561161e8161131e565b835291830191830161160b565b509695505050505050565b60008060006060848603121561164b57600080fd5b83356001600160401b038082111561166257600080fd5b61166e8783880161128c565b9450602086013591508082111561168457600080fd5b611456878388016115c3565b600080604083850312156116a357600080fd5b82356001600160401b03808211156116ba57600080fd5b6116c68683870161128c565b935060208501359150808211156116dc57600080fd5b506116e98582860161128c565b9150509250929050565b600082601f83011261170457600080fd5b81356020611714611369836112fb565b82815260059290921b8401810191818101908684111561173357600080fd5b8286015b8481101561162b5780356001600160401b038111156117565760008081fd5b6117648986838b010161128c565b845250918301918301611737565b60008060006060848603121561178757600080fd5b83356001600160401b038082111561179e57600080fd5b6117aa8783880161128c565b945060208601359150808211156117c057600080fd5b611456878388016116f3565b600080604083850312156117df57600080fd5b82356001600160401b03808211156117f657600080fd5b6118028683870161128c565b9350602085013591508082111561181857600080fd5b506116e985828601611348565b6000806040838503121561183857600080fd5b82356001600160401b038082111561184f57600080fd5b61185b8683870161128c565b9350602085013591508082111561187157600080fd5b506116e9858286016116f3565b60208152600061049c6020830184611483565b600080604083850312156118a457600080fd5b82356001600160401b03808211156118bb57600080fd5b6118c78683870161128c565b935060208501359150808211156118dd57600080fd5b506116e9858286016115c3565b6000806000606084860312156118ff57600080fd5b83356001600160401b038082111561191657600080fd5b6119228783880161128c565b9450602086013591508082111561193857600080fd5b6114568783880161128c565b60008251611956818460208701611560565b9190910192915050565b6000602080838503121561197357600080fd5b82516001600160401b038082111561198a57600080fd5b818501915060408083880312156119a057600080fd5b6119a861123a565b8351815284840151838111156119bd57600080fd5b80850194505087601f8501126119d257600080fd5b835192506119e2611369846112fb565b8381526060938402850186019386820191908a861115611a0157600080fd5b958701955b85871015611a645780878c031215611a1e5760008081fd5b611a26611212565b8751611a318161131e565b815287890151611a4081611336565b818a015287860151611a5181611336565b8187015283529586019591870191611a06565b5095820195909552979650505050505050565b634e487b7160e01b600052603260045260246000fd5b634e487b7160e01b600052601160045260246000fd5b63ffffffff828116828216039080821115611ac057611ac0611a8d565b5092915050565b808201808211156102d8576102d8611a8d565b606081526000611aed6060830186611584565b8460208401528281036040840152610d3b8185611584565b818103818111156102d8576102d8611a8d565b600082611b3557634e487b7160e01b600052601260045260246000fd5b500490565b80820281158282048414176102d8576102d8611a8d565b82815260008251611b69816020850160208701611560565b919091016020019392505050565b805160208201516bffffffffffffffffffffffff198082169291906014831015611bab5780818460140360031b1b83161693505b505050919050565b6001600160a81b0319831681528151600090611bd681600b850160208701611560565b91909101600b01939250505056fea164736f6c6343000818000a","linkReferences":{}},"methodIdentifiers":{"createFile(string,string)":"81ad193a","createFile(string,string,bytes)":"e9c7b51c","createFileFromChunks(string,string[])":"d0e11f72","createFileFromChunks(string,string[],bytes)":"83e870d3","createFileFromPointers(string,address[])":"e24eaca4","createFileFromPointers(string,address[],bytes)":"7611cb02","createFileFromSlices(string,(address,uint32,uint32)[])":"9d3127df","createFileFromSlices(string,(address,uint32,uint32)[],bytes)":"55bb7d2c","deployer()":"d5f39488","fileExists(string)":"9bccd6ad","files(string)":"e7755761","getFile(string)":"e0876aa8","getPointer(string)":"fae172e6","readFile(string)":"60f9bb11"},"id":39}